:0C0000000C9427100C9400000C940000DD
:10000C000C9400000C9400000C9400000C94000064
:10001C000C9400000C9400000C9400000C94000054
:10002C000C9400000C9400000C9400000C94191417
:10003C000C9400000C9400000C9400000C94F8112B
:10004C000C9400000C94CF130C9400000C94000042
:10005C000C9400000C9400000C9400000C94000014
:10006C000C9400000C9400000C9400000C94000004
:10007C000C9400000C9400000C9400000C940000F4
:10008C0000000020202020204D41494E204D454E9F
:10009C0055202020202000202053656E736F727332
:1000AC002020202020202020202000EC00000020F8
:1000BC00204163747561746F7220202020202020F1
:1000CC002020004C010000202053657474696E6779
:1000DC002020202020202020202000AC0100000027
:1000EC00008C002020202053454E534F52204D456C
:1000FC004E552020202000202054656D702020209B
:10010C0020202020202020202020000C0200002075
:10011C002048756D692020202020202020202020C0
:10012C002020006C02000020204D6F7265202020E2
:10013C002020202020202020202000CC02000000A5
:10014C00008C00202020204143545541544F522014
:10015C004D454E552020002020546869657420625E
:10016C006920202020202020202000EC03000020EB
:10017C002052656C617973202020202020202020C3
:10018C00202000CC08000020204E6F6E652020201F
:10019C002020202020202020202000000000000013
:1001AC00008C002020202053455454494E475320A6
:1001BC0020202020202000202048656E2047696FD9
:1001CC0020202020202020202020004C0D0000206A
:1001DC00204175746F2020202020202020202020FA
:1001EC002020004C1C00002020446F6E6720426FC2
:1001FC002020202020202020202000CC1D000000CA
:10020C0000EC002020202054454D502020202020A0
:10021C002020202020200020204F4E202020202095
:10022C0020202020202020202020000000581020FA
:10023C00204F464620202020202020202020202037
:10024C002020000000581020204E6F6E65202020CA
:10025C002020202020202020202000000000000052
:10026C0001EC002020202048554D49202020202042
:10027C002020202020200020204F4E202020202035
:10028C00202020202020202020200000005810209A
:10029C00204F4646202020202020202020202020D7
:1002AC002020000000581020204E6F6E652020206A
:1002BC0020202020202020202020000000000000F2
:1002CC0000EC002020202053454E534F52204D452A
:1002DC004E5520202020002020446F20616D20648A
:1002EC0061742020202020202020002C03000020DE
:1002FC002043616D204269656E204D756120202080
:10030C002020008C03000020204E6F6E65202020E2
:10031C002020202020202020202000000000000091
:10032C0002CC0220202020446F20616D2064617477
:10033C002020202020200020204F4E202020202074
:10034C0020202020202020202020000000581020D9
:10035C00204F464620202020202020202020202016
:10036C002020000000581020204E6F6E65202020A9
:10037C002020202020202020202000000000000031
:10038C0003CC0220202043616D204269656E204D14
:10039C007561202020200020204F4E20202020207E
:1003AC002020202020202020202000000058102079
:1003BC00204F4646202020202020202020202020B6
:1003CC002020000000581020204E6F6E6520202049
:1003DC0020202020202020202020000000000000D1
:1003EC00004C01202020205468696574206269202B
:1003FC0020202020202000202044656E202020205A
:10040C0020202020202020202020004C0400002030
:10041C0020517561742020202020202020202020B5
:10042C00202000CC0500002020426F6D20202020D1
:10043C0020202020202020202020004C070000001D
:10044C0000EC032020202044656E2020202020205A
:10045C002020202020200020204B687520312020D7
:10046C002020202020202020202000AC0400002070
:10047C00204B687520322020202020202020202096
:10048C002020000C05000020204B68752033202014
:10049C0020202020202020202020006C050000009F
:1004AC00044C042020202044656E204B68752031BC
:1004BC002020202020200020204F4E2020202020F3
:1004CC002020202020202020202000000058102058
:1004DC00204F464620202020202020202020202095
:1004EC002020000000581020204E6F6E6520202028
:1004FC0020202020202020202020000000000000B0
:10050C00054C042020202044656E204B6875203259
:10051C002020202020200020204F4E202020202092
:10052C0020202020202020202020000000581020F7
:10053C00204F464620202020202020202020202034
:10054C002020000000581020204E6F6E65202020C7
:10055C00202020202020202020200000000000004F
:10056C00064C042020202044656E204B68752033F7
:10057C002020202020200020204F4E202020202032
:10058C002020202020202020202000000058102097
:10059C00204F4646202020202020202020202020D4
:1005AC002020000000581020204E6F6E6520202067
:1005BC0020202020202020202020000000000000EF
:1005CC0000EC032020202051756174202020202075
:1005DC002020202020200020204B68753120202056
:1005EC0020202020202020202020002C060000206D
:1005FC00204B687532202020202020202020202015
:10060C002020008C06000020204B68753320202011
:10061C002020202020202020202000EC060000009C
:10062C0007CC052020202051756174204B68752063
:10063C003120202020200020204F4E202020202060
:10064C0020202020202020202020000000581020D6
:10065C00204F464620202020202020202020202013
:10066C002020000000581020204E6F6E65202020A6
:10067C00202020202020202020200000000000002E
:10068C0008CC052020202051756174204B68752002
:10069C003220202020200020204F4E2020202020FF
:1006AC002020202020202020202000000058102076
:1006BC00204F4646202020202020202020202020B3
:1006CC002020000000581020204E6F6E6520202046
:1006DC0020202020202020202020000000000000CE
:1006EC0009CC052020202051756174204B687520A1
:1006FC003320202020200020204F4E20202020209E
:10070C002020202020202020202000000058102015
:10071C00204F464620202020202020202020202052
:10072C002020000000581020204E6F6E65202020E5
:10073C00202020202020202020200000000000006D
:10074C0000EC0320202020426F6D20202020202050
:10075C002020202020200020204B687520312020D4
:10076C002020202020202020202000AC070000206A
:10077C00204B687520322020202020202020202093
:10078C002020000C08000020204B6875203320200E
:10079C0020202020202020202020006C0800000099
:1007AC000A4C0720202020426F6D204B68752031A9
:1007BC002020202020200020204F4E2020202020F0
:1007CC002020202020202020202000000058102055
:1007DC00204F464620202020202020202020202092
:1007EC002020000000581020204E6F6E6520202025
:1007FC0020202020202020202020000000000000AD
:10080C000B4C0720202020426F6D204B6875203246
:10081C002020202020200020204F4E20202020208F
:10082C0020202020202020202020000000581020F4
:10083C00204F464620202020202020202020202031
:10084C002020000000581020204E6F6E65202020C4
:10085C00202020202020202020200000000000004C
:10086C000C4C0720202020426F6D204B68752033E4
:10087C002020202020200020204F4E20202020202F
:10088C002020202020202020202000000058102094
:10089C00204F4646202020202020202020202020D1
:1008AC002020000000581020204E6F6E6520202064
:1008BC0020202020202020202020000000000000EC
:1008CC0000EC032020202052656C61792020202030
:1008DC002020202020200020204E686F6D20312009
:1008EC0020202020202020202020002C0900002067
:1008FC00204E686F6D2032202020202020202020C8
:10090C00202000AC0A000020204E686F6D203320A0
:10091C0020202020202020202020002C0C00000053
:10092C0000CC08202020204E686F6D203120202024
:10093C0020202020202000202052656C617920315D
:10094C0020202020202020202020008C09000020A6
:10095C002052656C6179203220202020202020201C
:10096C00202000EC090000202052656C61792033B6
:10097C0020202020202020202020004C0A000000D5
:10098C000D2C092020202052656C6179203120200B
:10099C002020202020200020204F4E20202020200E
:1009AC002020202020202020202000000058102073
:1009BC00204F4646202020202020202020202020B0
:1009CC002020000000581020204E6F6E6520202043
:1009DC0020202020202020202020000000000000CB
:1009EC000E2C092020202052656C617920322020A9
:1009FC002020202020200020204F4E2020202020AE
:100A0C002020202020202020202000000058102012
:100A1C00204F46462020202020202020202020204F
:100A2C002020000000581020204E6F6E65202020E2
:100A3C00202020202020202020200000000000006A
:100A4C000F2C092020202052656C61792033202046
:100A5C002020202020200020204F4E20202020204D
:100A6C0020202020202020202020000000581020B2
:100A7C00204F4646202020202020202020202020EF
:100A8C002020000000581020204E6F6E6520202082
:100A9C00202020202020202020200000000000000A
:100AAC0000CC08202020204E686F6D2032202020A2
:100ABC0020202020202000202052656C61792034D9
:100ACC0020202020202020202020000C0B000020A3
:100ADC002052656C61792035202020202020202098
:100AEC002020006C0B0000202052656C61792036B0
:100AFC002020202020202020202000CC0B000000D3
:100B0C0010AC0A2020202052656C61792034202002
:100B1C002020202020200020204F4E20202020208C
:100B2C0020202020202020202020000000581020F1
:100B3C00204F46462020202020202020202020202E
:100B4C002020000000581020204E6F6E65202020C1
:100B5C002020202020202020202000000000000049
:100B6C0011AC0A2020202052656C617920352020A0
:100B7C002020202020200020204F4E20202020202C
:100B8C002020202020202020202000000058102091
:100B9C00204F4646202020202020202020202020CE
:100BAC002020000000581020204E6F6E6520202061
:100BBC0020202020202020202020000000000000E9
:100BCC0012AC0A2020202052656C6179203620203E
:100BDC002020202020200020204F4E2020202020CC
:100BEC002020202020202020202000000058102031
:100BFC00204F46462020202020202020202020206E
:100C0C002020000000581020204E6F6E6520202000
:100C1C002020202020202020202000000000000088
:100C2C0000CC08202020204E686F6D20332020201F
:100C3C0020202020202000202052656C6179203754
:100C4C0020202020202020202020008C0C000020A0
:100C5C002052656C61792038202020202020202013
:100C6C00202000EC0C000020204E6F6E6520202010
:100C7C002020202020202000000000000000000088
:100C8C00132C0C2020202052656C617920372020F9
:100C9C002020202020200020204F4E20202020200B
:100CAC002020202020202020202000000058102070
:100CBC00204F4646202020202020202020202020AD
:100CCC002020000000581020204E6F6E6520202040
:100CDC0020202020202020202020000000000000C8
:100CEC00142C0C2020202052656C61792038202097
:100CFC002020202020200020204F4E2020202020AB
:100D0C00202020202020202020200000005810200F
:100D1C00204F46462020202020202020202020204C
:100D2C002020000000581020204E6F6E65202020DF
:100D3C002020202020202020202000000000000067
:100D4C0000AC012020202048656E2047696F2020D0
:100D5C0020202020202000202044656E20202020F0
:100D6C002020202020202020202000AC0D0000205E
:100D7C00205175617420202020202020202020204C
:100D8C002020000C0E00002020426F6D202020201F
:100D9C0020202020202020202020006C0E0000008D
:100DAC00004C0D2020202048656E2047696F2044A0
:100DBC00656E202020200020204B687520312020DB
:100DCC002020202020202020202000CC0E000020DD
:100DDC00204B68752032202020202020202020202D
:100DEC002020004C10000020204B68752033202060
:100DFC002020202020202020202000CC11000000CA
:100E0C00004C0D2020202048656E2047696F205132
:100E1C007561742020200020204B68752031202023
:100E2C0020202020202020202020004C13000020F7
:100E3C00204B6875203220202020202020202020CC
:100E4C00202000CC14000020204B6875203320207B
:100E5C0020202020202020202020004C16000000E4
:100E6C00004C0D2020202048656E2047696F2042E1
:100E7C006F6D202020200020204B68752031202011
:100E8C002020202020202020202000CC1700002013
:100E9C00204B68752032202020202020202020206C
:100EAC002020004C19000020204B68752033202096
:100EBC002020202020202020202000CC1A00000000
:100ECC0000AC0D2048656E2047696F2044656E208C
:100EDC004B68752031200020204C616E2031202081
:100EEC0020202020202020202020002C0F0000205B
:100EFC00204C616E20322020202020202020202019
:100F0C002020008C0F000020204C616E203320200C
:100F1C002020202020202020202000EC0F0000008A
:100F2C0000CC0E2048656E2047696F2044656E200A
:100F3C004C616E20312000202047696F202020203A
:100F4C002020202020202020202000000000002035
:100F5C002050687574202020202020202020202064
:100F6C002020000000000020202020202044656C60
:100F7C0065746520202020202020000000571000E0
:100F8C0001CC0E2048656E2047696F2044656E20A9
:100F9C004C616E20322000202047696F20202020D9
:100FAC0020202020202020202020000000000020D5
:100FBC002050687574202020202020202020202004
:100FCC002020000000000020202020202044656C00
:100FDC006574652020202020202000000057100080
:100FEC0002CC0E2048656E2047696F2044656E2048
:100FFC004C616E20332000202047696F2020202078
:10100C002020202020202020202000000000002074
:10101C0020506875742020202020202020202020A3
:10102C002020000000000020202020202044656C9F
:10103C00657465202020202020200000005710001F
:10104C0000AC0D2048656E2047696F2044656E200A
:10105C004B68752032200020204C616E20312020FE
:10106C002020202020202020202000AC1000002058
:10107C00204C616E20322020202020202020202097
:10108C002020000C11000020204C616E2033202009
:10109C0020202020202020202020006C1100000087
:1010AC00034C102048656E2047696F2044656E2004
:1010BC004C616E20312000202047696F20202020B9
:1010CC0020202020202020202020000000000020B4
:1010DC0020506875742020202020202020202020E3
:1010EC002020000000000020202020202044656CDF
:1010FC00657465202020202020200000005710005F
:10110C00044C102048656E2047696F2044656E20A2
:10111C004C616E20322000202047696F2020202057
:10112C002020202020202020202000000000002053
:10113C002050687574202020202020202020202082
:10114C002020000000000020202020202044656C7E
:10115C0065746520202020202020000000571000FE
:10116C00054C102048656E2047696F2044656E2041
:10117C004C616E20332000202047696F20202020F6
:10118C0020202020202020202020000000000020F3
:10119C002050687574202020202020202020202022
:1011AC002020000000000020202020202044656C1E
:1011BC00657465202020202020200000005710009E
:1011CC0000AC0D2048656E2047696F2044656E2089
:1011DC004B68752033200020204C616E203120207C
:1011EC0020202020202020202020002C1200002055
:1011FC00204C616E20322020202020202020202016
:10120C002020008C12000020204C616E2033202006
:10121C002020202020202020202000EC1200000084
:10122C0006CC112048656E2047696F2044656E20FE
:10123C004C616E20312000202047696F2020202037
:10124C002020202020202020202000000000002032
:10125C002050687574202020202020202020202061
:10126C002020000000000020202020202044656C5D
:10127C0065746520202020202020000000571000DD
:10128C0007CC112048656E2047696F2044656E209D
:10129C004C616E20322000202047696F20202020D6
:1012AC0020202020202020202020000000000020D2
:1012BC002050687574202020202020202020202001
:1012CC002020000000000020202020202044656CFD
:1012DC00657465202020202020200000005710007D
:1012EC0008CC112048656E2047696F2044656E203C
:1012FC004C616E20332000202047696F2020202075
:10130C002020202020202020202000000000002071
:10131C0020506875742020202020202020202020A0
:10132C002020000000000020202020202044656C9C
:10133C00657465202020202020200000005710001C
:10134C00000C0E2048656E2047696F205175617442
:10135C00204B687520310020204C616E20312020FC
:10136C002020202020202020202000AC1300002052
:10137C00204C616E20322020202020202020202094
:10138C002020000C14000020204C616E2033202003
:10139C0020202020202020202020006C1400000081
:1013AC00094C132048656E2047696F205175617494
:1013BC00204C616E203100202047696F20202020B6
:1013CC0020202020202020202020000000000020B1
:1013DC0020506875742020202020202020202020E0
:1013EC002020000000000020202020202044656CDC
:1013FC00657465202020202020200000005710005C
:10140C000A4C132048656E2047696F205175617432
:10141C00204C616E203200202047696F2020202054
:10142C002020202020202020202000000000002050
:10143C00205068757420202020202020202020207F
:10144C002020000000000020202020202044656C7B
:10145C0065746520202020202020000000571000FB
:10146C000B4C132048656E2047696F2051756174D1
:10147C00204C616E203300202047696F20202020F3
:10148C0020202020202020202020000000000020F0
:10149C00205068757420202020202020202020201F
:1014AC002020000000000020202020202044656C1B
:1014BC00657465202020202020200000005710009B
:1014CC00000C0E2048656E2047696F2051756174C1
:1014DC00204B687520320020204C616E203120207A
:1014EC0020202020202020202020002C150000204F
:1014FC00204C616E20322020202020202020202013
:10150C002020008C15000020204C616E2033202000
:10151C002020202020202020202000EC150000007E
:10152C000CCC142048656E2047696F20517561748E
:10153C00204C616E203100202047696F2020202034
:10154C00202020202020202020200000000000202F
:10155C00205068757420202020202020202020205E
:10156C002020000000000020202020202044656C5A
:10157C0065746520202020202020000000571000DA
:10158C000DCC142048656E2047696F20517561742D
:10159C00204C616E203200202047696F20202020D3
:1015AC0020202020202020202020000000000020CF
:1015BC0020506875742020202020202020202020FE
:1015CC002020000000000020202020202044656CFA
:1015DC00657465202020202020200000005710007A
:1015EC000ECC142048656E2047696F2051756174CC
:1015FC00204C616E203300202047696F2020202072
:10160C00202020202020202020200000000000206E
:10161C00205068757420202020202020202020209D
:10162C002020000000000020202020202044656C99
:10163C006574652020202020202000000057100019
:10164C00000C0E2048656E2047696F20517561743F
:10165C00204B687520330020204C616E20312020F7
:10166C002020202020202020202000AC160000204C
:10167C00204C616E20322020202020202020202091
:10168C002020000C17000020204C616E20332020FD
:10169C0020202020202020202020006C170000007B
:1016AC000F4C162048656E2047696F205175617488
:1016BC00204C616E203100202047696F20202020B3
:1016CC0020202020202020202020000000000020AE
:1016DC0020506875742020202020202020202020DD
:1016EC002020000000000020202020202044656CD9
:1016FC006574652020202020202000000057100059
:10170C00104C162048656E2047696F205175617426
:10171C00204C616E203200202047696F2020202051
:10172C00202020202020202020200000000000204D
:10173C00205068757420202020202020202020207C
:10174C002020000000000020202020202044656C78
:10175C0065746520202020202020000000571000F8
:10176C00114C162048656E2047696F2051756174C5
:10177C00204C616E203300202047696F20202020F0
:10178C0020202020202020202020000000000020ED
:10179C00205068757420202020202020202020201C
:1017AC002020000000000020202020202044656C18
:1017BC006574652020202020202000000057100098
:1017CC00006C0E2048656E2047696F20426F6D20BB
:1017DC004B68752031200020204C616E2031202078
:1017EC0020202020202020202020002C1800002049
:1017FC00204C616E20322020202020202020202010
:10180C002020008C18000020204C616E20332020FA
:10181C002020202020202020202000EC1800000078
:10182C0012CC172048656E2047696F20426F6D20DF
:10183C004C616E20312000202047696F2020202031
:10184C00202020202020202020200000000000202C
:10185C00205068757420202020202020202020205B
:10186C002020000000000020202020202044656C57
:10187C0065746520202020202020000000571000D7
:10188C0013CC172048656E2047696F20426F6D207E
:10189C004C616E20322000202047696F20202020D0
:1018AC0020202020202020202020000000000020CC
:1018BC0020506875742020202020202020202020FB
:1018CC002020000000000020202020202044656CF7
:1018DC006574652020202020202000000057100077
:1018EC0014CC172048656E2047696F20426F6D201D
:1018FC004C616E20332000202047696F202020206F
:10190C00202020202020202020200000000000206B
:10191C00205068757420202020202020202020209A
:10192C002020000000000020202020202044656C96
:10193C006574652020202020202000000057100016
:10194C00006C0E2048656E2047696F20426F6D2039
:10195C004B68752032200020204C616E20312020F5
:10196C002020202020202020202000AC1900002046
:10197C00204C616E2032202020202020202020208E
:10198C002020000C1A000020204C616E20332020F7
:10199C0020202020202020202020006C1A00000075
:1019AC00154C192048656E2047696F20426F6D20D9
:1019BC004C616E20312000202047696F20202020B0
:1019CC0020202020202020202020000000000020AB
:1019DC0020506875742020202020202020202020DA
:1019EC002020000000000020202020202044656CD6
:1019FC006574652020202020202000000057100056
:101A0C00164C192048656E2047696F20426F6D2077
:101A1C004C616E20322000202047696F202020204E
:101A2C00202020202020202020200000000000204A
:101A3C002050687574202020202020202020202079
:101A4C002020000000000020202020202044656C75
:101A5C0065746520202020202020000000571000F5
:101A6C00174C192048656E2047696F20426F6D2016
:101A7C004C616E20332000202047696F20202020ED
:101A8C0020202020202020202020000000000020EA
:101A9C002050687574202020202020202020202019
:101AAC002020000000000020202020202044656C15
:101ABC006574652020202020202000000057100095
:101ACC00006C0E2048656E2047696F20426F6D20B8
:101ADC004B68752033200020204C616E2031202073
:101AEC0020202020202020202020002C1B00002043
:101AFC00204C616E2032202020202020202020200D
:101B0C002020008C1B000020204C616E20332020F4
:101B1C002020202020202020202000EC1B00000072
:101B2C0018CC1A2048656E2047696F20426F6D20D3
:101B3C004C616E20312000202047696F202020202E
:101B4C002020202020202020202000000000002029
:101B5C002050687574202020202020202020202058
:101B6C002020000000000020202020202044656C54
:101B7C0065746520202020202020000000571000D4
:101B8C0019CC1A2048656E2047696F20426F6D2072
:101B9C004C616E20322000202047696F20202020CD
:101BAC0020202020202020202020000000000020C9
:101BBC0020506875742020202020202020202020F8
:101BCC002020000000000020202020202044656CF4
:101BDC006574652020202020202000000057100074
:101BEC001ACC1A2048656E2047696F20426F6D2011
:101BFC004C616E20332000202047696F202020206C
:101C0C002020202020202020202000000000002068
:101C1C002050687574202020202020202020202097
:101C2C002020000000000020202020202044656C93
:101C3C006574652020202020202000000057100013
:101C4C0000AC01202020204175746F202020202022
:101C5C002020202020200020204175746F20446516
:101C6C006E20202020202020202000AC1C000020F2
:101C7C00204175746F205175617420202020202024
:101C8C002020000C1D000020204175746F20426F35
:101C9C006D202020202020202020006C1D00000022
:101CAC00154C1C202020204175746F2044656E203B
:101CBC002020202020200020204F4E2020202020DB
:101CCC002020202020202020202000000037112060
:101CDC00204F46462020202020202020202020207D
:101CEC002020000000971120205472616E67205450
:101CFC0068616920202020202020000000000000C6
:101D0C00164C1C202020204175746F205175617475
:101D1C002020202020200020204F4E20202020207A
:101D2C0020202020202020202020000000371120FF
:101D3C00204F46462020202020202020202020201C
:101D4C002020000000971120205472616E672054EF
:101D5C006861692020202020202000000000000065
:101D6C00174C1C202020204175746F20426F6D2071
:101D7C002020202020200020204F4E20202020201A
:101D8C00202020202020202020200000003711209F
:101D9C00204F4646202020202020202020202020BC
:101DAC002020000000971120205472616E6720548F
:101DBC006861692020202020202000000000000005
:101DCC0000AC0120202020446F6E6720426F202041
:101DDC00202020202020002020446F6E6720426F9E
:101DEC00205468696574204269200000002311208A
:101DFC0020446F6E6720426F2048656E2047696FE4
:101E0C0020200000002D11202048756F6E672044A3
:101E1C00616E20446F6E6720426F002C1E00000024
:101E2C0000CC1D202048756F6E672044616E2044E5
:101E3C006F6E6720426F00202044656E20446F6EE9
:101E4C006720426F205461742020000000000020A5
:101E5C00206C6120446F6E6720426F20586F6E6754
:101E6C002020000000000020202020202020202006
:101E7C002020202020202020202000CC1D0000002D
:101E8C001027E80364000A00010000100001100094
:101E9C0001000000000000000000000037000100FD
:101EAC007B2274797065223A25642C226964223A6B
:101EBC0025642C22737461747573223A25647D0D2C
:101ECC000A007B2274797065223A25647D0D0A0024
:101EDC007B2274797065223A25642C2273746174A8
:101EEC007573223A25647D0D0A007B227479706526
:101EFC00223A25642C226964223A25642C226769D3
:101F0C006F223A25642C2270687574223A25647D00
:101F1C000D0A007B2274797065223A25642C2269A3
:101F2C0064223A25647D0D0A00204F4E2020483A49
:101F3C0025642C204D3A25642020202000204F467B
:101F4C004620483A25642C204D3A25642020202038
:101F5C000020205472616E6720546861693A204FEA
:101F6C00464620200020205472616E672054686120
:101F7C00693A204F4E202020003E00202054696DED
:101F8C00653A202532643A253032643A2530326481
:101F9C0020202000205468752025642C2532642FC5
:101FAC00253032642F25642020200020543A20252F
:101FBC006425642E3020432020483A2025642E25A9
:101FCC00642000204441443A2564202C4B484F4E59
:101FDC0047204D55412000204441443A2564202C93
:101FEC00204D5541202020202020007B2274797028
:101FFC0065223A25642C2274656D70223A25642C76
:10200C002268756D69223A25642C22646164223A37
:10201C0025642C2263626D7561223A25647D0D0A5C
:10202C0000000A0004009E1E01001F07A81E0100EC
:10203C002007AA1E140000055D1F14001405711F53
:10204C000000F894EE27ECBBF1E0F5BFE5BFE093A0
:10205C006C008DE0A2E0BB27ED938A95E9F780E058
:10206C0090E1A0E0B1E0ED930197E9F7EEE2F0E248
:10207C0085919591009761F0A591B591059015907A
:10208C00BF01F00105900D920197E1F7FB01F0CF34
:10209C008BBFEFEFEDBFE0E1EEBFC0E0D5E00C94FD
:1020AC0048140895AA930E94CE1DEF810E94D91D59
:1020BC00EA850E94D91D0E94DF1DE9810E94E41D62
:1020CC0021F4E8810E94E91DABC0309729F40E94ED
:1020DC00F21D0E94F71DA4C0E230A0E0FA0709F43B
:1020EC009FC0E330A0E0FA0709F49AC0E430A0E006
:1020FC00FA0721F4E8810E94FE1D92C0E530A0E0B1
:10210C00FA0729F40E94F21D0E94071E89C0E630CE
:10211C00A0E0FA0729F40E940E1E0E94141E80C033
:10212C00E730A0E0FA0721F4E8810E941B1E78C07A
:10213C00E830A0E0FA0729F40E94F21D0E94241E48
:10214C006FC0E930A0E0FA0729F40E940E1E0E942D
:10215C002B1E66C0EA30A0E0FA0721F4E8810E9449
:10216C00321E5EC0EB30A0E0FA0729F40E94F21D8B
:10217C000E943B1E55C0EC30A0E0FA0729F40E94E7
:10218C000E1E0E94421E4CC0ED30A0E0FA0739F43E
:10219C00E881E1700E2EE0912805EE7F3EC0EE3016
:1021AC00A0E0FA0731F40E94F21DE0912805ED7FC2
:1021BC0034C0EF30A0E0FA0731F40E940E1EE0911B
:1021CC002805EB7F2AC0E031A0E0FA0739F4E8815A
:1021DC000E94491EE0912805E77F1FC0E131A0E075
:1021EC00FA0721F4E8810E944F1E17C0E231A0E0EB
:1021FC00FA0721F4E8810E94571E0FC0E331A0E0DA
:10220C00FA0721F4E8810E94601E07C0E431A0E0C7
:10221C00FA0731F4E8810E946A1EE029E093280550
:10222C00E0912805E09300110E94731E0E94781E15
:10223C000E947D1E0E94821ED3C0AA93EEECFEE18A
:10224C00FA93EA930E94871E0E948E1EC9C0AA931D
:10225C00EEECFEE1FA93EA930E94971E0E948E1E0A
:10226C00BFC0AA93A981A531D1F4E1E0E0932D057B
:10227C000E94CE1D0E949E1E0E94A51E0E94CE1D75
:10228C000E94871E0E94A51E0E94CE1D0E94971EB2
:10229C000E94A51E0E94AC1E0E94B11E39C0A981CD
:1022AC00A631D1F4E1E0E0932E050E94CE1D0E94F0
:1022BC00B11E0E94B61E0E94CE1D0E94B91E0E9425
:1022CC00B61E0E94CE1D0E94BE1E0E94B61E0E940B
:1022DC00AC1E0E94B91E1CC0A981A73109F5E1E012
:1022EC00E0932F050E94CE1D0E94C31E0E94B61EB5
:1022FC000E94CE1D0E94C81E0E94B61E0E94CE1DBA
:10230C000E94CD1E0E94B61E0E94AC1E0E94BE1ED4
:10231C000E946B21E1E0F0E060E070E00E94D21ED0
:10232C005FC0AA93A981A531D1F4E0E0E0932D051B
:10233C000E94CE1D0E949E1E0E94D91E0E94CE1D80
:10234C000E94871E0E94D91E0E94CE1D0E94971EBD
:10235C000E94D91E0E94AC1E0E94B11E39C0A981D8
:10236C00A631D1F4E0E0E0932E050E94CE1D0E9430
:10237C00B11E0E94E01E0E94CE1D0E94B91E0E943A
:10238C00E01E0E94CE1D0E94BE1E0E94E01E0E94F6
:10239C00AC1E0E94B91E1CC0A981A73109F5E0E052
:1023AC00E0932F050E94CE1D0E94C31E0E94E01ECA
:1023BC000E94CE1D0E94C81E0E94E01E0E94CE1DCF
:1023CC000E94CD1E0E94E01E0E94AC1E0E94BE1EEA
:1023DC000E946B21E0E0F0E060E070E00E94D21E11
:1023EC0022960895EA93FA93EFB7EA931A931CB1E5
:1023FC001A3021F4E1E04E2E552406C0E52DF0E014
:10240C00E05DFA4F108353941991D9C1442009F41B
:10241C00BFC1E09131050E94E31EE0913205AE0F81
:10242C00A0537A2EE0913005F0E0E335A0E0FA07F6
:10243C0009F014C1E0913305E0536E2EE4E1E71589
:10244C0021F4949AE7B7E460E7BFE72DF0E030970A
:10245C0041F460922A06E62D0E94E91D0E94821E1C
:10246C00FCC0E130A0E0FA0749F460922B060E9410
:10247C00E91E0E94F71D0E94821EEFC0E230A0E010
:10248C00FA0759F460922C060E94EE1EE0912C057E
:10249C00EB7FE0290E94F41EE0C0E330A0E0FA07D5
:1024AC0061F460922D06E62D0E94491EE0912C05E8
:1024BC00E77FE0290E94F41ED0C0E430A0E0FA07C8
:1024CC0041F460922E06E62D0E94FE1D0E94731EA2
:1024DC00C4C0E530A0E0FA0749F460922F060E94D0
:1024EC00E91E0E94071E0E94731EB7C0E630A0E0D2
:1024FC00FA0749F4609230060E94EE1E0E94141EE8
:10250C000E94731EAAC0E730A0E0FA0741F4609263
:10251C003106E62D0E941B1E0E94781E9EC0E830DC
:10252C00A0E0FA0749F4609232060E94E91E0E946C
:10253C00241E0E94781E91C0E930A0E0FA0749F4ED
:10254C00609233060E94EE1E0E942B1E0E94781E83
:10255C0084C0EA30A0E0FA0741F460923406E62D1C
:10256C000E94321E0E947D1E78C0EB30A0E0FA075C
:10257C0049F4609235060E94E91E0E943B1E0E949F
:10258C007D1E6BC0EC30A0E0FA0749F46092360671
:10259C000E94EE1E0E94421E0E947D1E5EC0ED3007
:1025AC00A0E0FA0749F460923706E62DE1700E2E92
:1025BC00E0912805EE7F4CC0EE30A0E0FA0741F424
:1025CC00609238060E94E91EE0912805ED7F40C01C
:1025DC00EF30A0E0FA0741F4609239060E94EE1E3B
:1025EC00E0912805EB7F34C0E031A0E0FA0749F414
:1025FC0060923A06E62D0E94491EE0912805E77F7D
:10260C0027C0E131A0E0FA0731F460923B06E62DD9
:10261C000E944F1E1DC0E231A0E0FA0731F4609217
:10262C003C06E62D0E94571E13C0E331A0E0FA07CA
:10263C0031F460923D06E62D0E94601E09C0E43123
:10264C00A0E0FA0751F460923E06E62D0E946A1E45
:10265C00E029E0932805E093001199C0EE34A0E046
:10266C00FA07E9F4E09133050E94E31EE09134058A
:10267C00AE0FA0539A2EE09135050E94E31EE09117
:10268C003605AE0FA0538A2EE72DF0E0ED5BF94F27
:10269C009082E72DF0E0EF59F94F808278C0E63454
:1026AC00A0E0FA0721F5EAE1E71521F4949AE7B7DF
:1026BC00E460E7BFE09133050E94E31EE09134052E
:1026CC00AE0FA053BA2EE09135050E94E31EE091A7
:1026DC003605AE0FA053AA2EE72DF0E0E158F94FC6
:1026EC00B082E72DF0E0E356F94FA08250C0E434FD
:1026FC00A0E0FA0799F4E72DF0E0ED5BF94F0E94AA
:10270C00F71EEF59F94F0E94F71EE158F94F0E943E
:10271C00F71EE356F94FA6E4A08339C0E134A0E0DC
:10272C00FA0779F40E94FC1E60922E0660922F0626
:10273C0060923006AFE3B6E0E62DEC93E0932D0506
:10274C0026C0E234A0E0FA0779F40E94FC1E6092E5
:10275C0031066092320660923306A0E4B6E0E62DB4
:10276C00EC93E0932E0513C0E334A0E0FA0779F460
:10277C000E94FC1E6092340660923506609236060A
:10278C00E0913105E053E0934106E0932F0544249A
:10279C000895EA93FA93EFB7EA93E091FB06E030E1
:1027AC0071F0E150E093FB06EC2DC394F0E0E5549E
:1027BC00F94FE081ECB9E0E4EC1509F4CC24E99193
:1027CC00EFBFF991E9911895AA93A091FB06A0345B
:1027DC00E1F3F894E091FB06E03011F45D9911C03F
:1027EC00ED2DD394F0E0E554F94FA881A083E0E4FB
:1027FC00ED1509F4DD24E091FB06EF5FE093FB0699
:10280C0002C0E881ECB978940CC0AA93E881E06E20
:10281C00E7B983E48A95F1F7369A349BFECF349A64
:10282C00E5B1219608950A921A92FA926A937A93D4
:10283C008A939A93AA93BA93EA93FA93EFB7EA938B
:10284C00E3EBEDBDE5EBECBDAFE3B7E00E94011FA0
:10285C00A0913F07B0914007549731F4BDD3E0E00D
:10286C00E0933F07E0934007E991EFBFF991E991BD
:10287C00B991A9919991899179916991F99019904E
:10288C000990189511E000E072D60E94371BE0E029
:10289C00E093FC06E6E2E093FE06EAE0E093FD0638
:1028AC00E3E0E093FF06EBE0E0930107E1E0E09367
:1028BC000007E6E1E0930207D1D340D257D212D3FE
:1028CC00A5DD21D5A0912D05A13001F5A091FD0626
:1028DC00E2E10E9427210E2EA0912007E1E00E9448
:1028EC002221E02951F0A0912905AF3F29F0EFEF0B
:1028FC00E09329050E94731E09C0E0912905E03080
:10290C0029F0E0E0E09329050E94731EA0912E05AA
:10291C00A130B9F4A0911E07A03250F0A0912A0565
:10292C00AF3F29F0EFEFE0932A050E94781E09C013
:10293C00E0912A05E03029F0E0E0E0932A050E94BE
:10294C00781EA0912F05A130B9F4A0911F07A531D5
:10295C0050F4A0912B05AF3F29F0EFEFE0932B053E
:10296C000E947D1E09C0E0912B05E03029F0E0E0CB
:10297C00E0932B050E947D1E0599DAC101E0ECE87D
:10298C00F0E00E94071F013009F0D0C13FDD06992D
:10299C0003C000E0069BFECF02990BC0113011F46E
:1029AC00E3E003C0E12FF0E031970E940D1F029B82
:1029BC00FECF03990BC0133011F4E1E003C0E12FFB
:1029CC00F0E031960E940D1F039BFECF019938C099
:1029DC00E12F0E94E41D69F4F901BB960E94682165
:1029EC00109711F4F90104C0F901BB960E946421FF
:1029FC0022C0E230A0E0FA0779F4F901ED5BFF4F59
:102A0C000E946821109711F4F90105C0F901ED5BE2
:102A1C00FF4F0E9464210FC0E330A0E0FA0761F47D
:102A2C00F9010E94131F11F4F90105C0F901E55ACF
:102A3C00FF4F0E9464219F010E94191F019BFECF32
:102A4C00009910C0F90131960E946821109711F479
:102A5C00F90104C0F90131960E9464210E94071FFC
:102A6C00009BFECF049961C12297E0E0E883E983E3
:102A7C00E12F0E94E41D09F09BC0F901BD960E9454
:102A8C006421309779F0F901E491EA93A1E0F9011E
:102A9C00BD960E9464210995F9010E941E1FA1E0B8
:102AAC00A08385C00E94231F09F481C0049BFECF24
:102ABC00E1E0E983A981A13009F079C0E881E03037
:102ACC0069F502990DC00E942A1F0E94361FED5B0A
:102ADC00F94FA081A83120F00E943C1FA0E0A083F8
:102AEC0003990DC00E942A1FE150EC930E943C1FD9
:102AFC00A081A03021F40E943C1FA7E1A083019982
:102B0C0004C0E1E0E883019BFECF049904C00E945D
:102B1C00421F049BFECF0E94191FD0CFA881A13069
:102B2C0069F502990DC00E94471F0E94361FEF598C
:102B3C00F94FA081AC3320F00E94531FA0E0A0837A
:102B4C0003990DC00E94471FE150EC930E94531F44
:102B5C00A081A03021F40E94531FABE3A083009905
:102B6C0004C0E0E0E883009BFECF049904C00E94FF
:102B7C00421F049BFECF0E94191FD0CFE6EFFEE14F
:102B8C00FA93EA93E2E0F0E060E070E00E94591FF3
:102B9C000E943C1FE0810E94D91D0E94531FE081BE
:102BAC000E94D91D80E10E943B1D629683CFB8C064
:102BBC00E230A0E0FA0709F09DC0F901EB5BFF4F92
:102BCC000E946421309781F0F901E491EA93A0E02E
:102BDC00F901EB5BFF4F0E9464210995F9010E94FA
:102BEC001E1FA0E0A08385C00E94231F09F481C092
:102BFC00049BFECFE1E0E983A981A13009F079C003
:102C0C00E881E03069F502990DC00E945E1F0E94B8
:102C1C00361FE158F94FA081A83120F00E946A1F9D
:102C2C00A0E0A08303990DC00E945E1FE150EC93BD
:102C3C000E946A1FA081A03021F40E946A1FA7E1A4
:102C4C00A083019904C0E1E0E883019BFECF0499C5
:102C5C0004C00E94421F049BFECF0E94191FD0CFBC
:102C6C00A881A13069F502990DC00E94701F0E94C5
:102C7C00361FE356F94FA081AC3320F00E947C1F25
:102C8C00A0E0A08303990DC00E94701FE150EC934B
:102C9C000E947C1FA081A03021F40E947C1FABE31A
:102CAC00A083009904C0E0E0E883009BFECF049968
:102CBC0004C00E94421F049BFECF0E94191FD0CF5C
:102CCC00E6EFFEE1FA93EA93E3E0F0E060E070E017
:102CDC000E94591F0E946A1FE0810E94D91D0E9408
:102CEC007C1FE0810E94D91D80E10E943B1D6296F1
:102CFC0083CF16C0E330A0E0FA0791F40E94231FA3
:102D0C0079F0ACD1EFE1FFE1FA93EA930E949E1EB9
:102D1C00F901E4910E94D91D88E00E943B1D2A967E
:102D2C000E94191F049BFECF22962DCE059BFECF31
:102D3C00A8EEB3E00E940B21C1CDFFCFE1E0E09300
:102D4C002A06E0932B06E0932C06E0932D06E091E7
:102D5C002C05E1600E94821FE2600E94821FE460E9
:102D6C000E94821FE8600E94F41E0895EDEFF6E0C9
:102D7C00FA93EA93EEEFF6E0FA93EA93ACEFB6E04F
:102D8C000E94741DEFEFF6E0FA93EA93E0E0F7E0AF
:102D9C00FA93EA93E1E0F7E0FA93EA93A2E0B7E062
:102DAC000E948D1D0895AA93E981FA813396FA93B6
:102DBC00EA93E0E00E94851FE35AFF4F0E946821CE
:102DCC001097A1F0E981FA810E94131F79F4E9812F
:102DDC00FA81BD960E946821109741F4E981FA812D
:102DEC00EB5BFF4F0E946821109709F02CC00E94EA
:102DFC008C1FE5E3FFE10E94911FED5BF94FE08131
:102E0C000E94D91DE985FA85E4910E94981F0E94C1
:102E1C00D91D0E949D1F0E94A21FE9E4FFE10E94A0
:102E2C00911FE158F94FE0810E94D91DE985FA857F
:102E3C00E4910E94A81F0E94D91D0E949D1FE2E0F0
:102E4C000E94AD1F0EC0E981FA817796FA93EA933E
:102E5C00E1E00E94851FBF96FA93EA93E2E00E949C
:102E6C00B11FE981FA81BB960E9468211097A9F4E1
:102E7C00E981FA81ED5BFF4F0E946821109769F49C
:102E8C00E981FA810E94131F41F4E981FA81E35A26
:102E9C00FF4F0E946821109709F012C0E981FA8156
:102EAC000E941E1FE081E03019F4E0E0F5E002C062
:102EBC00E4E1F5E0FA93EA93E3E00E94AD1F09C068
:102ECC00E981FA81E95BFF4FFA93EA93E3E00E9410
:102EDC00B11FE5E8FFE1FA93EA93EA810E94B11F82
:102EEC00239608950E948C1FE7E8FFE1FA93EA937A
:102EFC00E091FD060E94D91DE091FE060E94D91DAD
:102F0C00E091FC060E94D91D8CE00E940D1D60967C
:102F1C000E948C1FE0E00E94AD1F0E948C1FE0EA13
:102F2C00FFE1FA93EA93E091FF060E94D91DE0912C
:102F3C0001070E94D91DE09100070E94D91DE09164
:102F4C000207F0E0E053F84F0E94B51F0E94BA1F31
:102F5C000E94A21FE7EBFFE1FA93EA93A0911E07F0
:102F6C00B0E0EAE0F0E00E943F210E94B51FA09182
:102F7C001E07BB27EAE0F0E00E9444210E94B51F27
:102F8C00E0911C07F0911D070E94B51FE0911807F6
:102F9C000E94D91D0E94BA1FE2E00E94AD1FE09171
:102FAC002007E03029F40E948C1FEFECFFE104C0F5
:102FBC000E948C1FE3EEFFE1FA93EA93E0911F0766
:102FCC000E94D91D84E00E940D1D28960E948C1F22
:102FDC00E3E00E94AD1F08950E940C1B0E94141B7D
:102FEC000E941C1BE09317070E941C1BE093180700
:102FFC000E941C1BE09319070E941C1BE0931A07EC
:10300C000E941C1BE0931B07A7E0FFDBE0931E074D
:10301C00E0911707F0E0E0931C07F0931D07E7EF32
:10302C00FFE1FA93EA93E0E0F0E060E070E00E94E8
:10303C006B21E0911E070E94D91DE09117070E9499
:10304C00D91DE0911F070E94D91DE09120070E9415
:10305C00D91D84E10E943B1D669608951A9310E0D9
:10306C001B31A0F40E94BF1F0E94C41FEF59F94FDF
:10307C000E94C41FE158F94F0E94C41FE356F94F38
:10308C000E94C41F0E94C91F1F5FEACF6EC20E941C
:10309C00CE1F31F40E94D41F19F4A981A03009F07D
:1030AC002EC0EE81E03051F4E0912905E1600E94E0
:1030BC00D91FE4E0F0E060E070E019C0AE81A1300F
:1030CC0051F4E0912905E2600E94D91FE5E0F0E09F
:1030DC0060E070E00CC0AE81A23069F4E09129058B
:1030EC00E4600E94D91FE6E0F0E060E070E00E942E
:1030FC006B210E94A51E0E94731E0E94DC1F0E9461
:10310C00E31F31F40E94E81F19F4A981A13009F0E2
:10311C002EC0EE81E03051F4E0912905EE7F0E9443
:10312C00D91FE4E0F0E060E070E019C0AE81A1309E
:10313C0051F4E0912905ED7F0E94D91FE5E0F0E004
:10314C0060E070E00CC0AE81A23069F4E09129051A
:10315C00EB7F0E94D91FE6E0F0E060E070E00E9497
:10316C006B210E94D91E0E94731E0E94ED1FC9C0C4
:10317C000E94CE1F31F40E94D41F19F4A981A030F3
:10318C0009F028C0EE81E03041F4E0912A05E160BD
:10319C000E94F01F0E94B11E15C0AE81A13041F4F7
:1031AC00E0912A05E2600E94F01F0E94B91E0AC03D
:1031BC00AE81A23059F4E0912A05E4600E94F01F20
:1031CC000E94BE1E0E946B210E94A51E0E94781EAA
:1031DC000E94DC1F0E94E31F31F40E94E81F19F4C7
:1031EC00A981A13009F028C0EE81E03041F4E091D2
:1031FC002A05EE7F0E94F01F0E94B11E15C0AE8101
:10320C00A13041F4E0912A05ED7F0E94F01F0E944D
:10321C00B91E0AC0AE81A23059F4E0912A05EB7FA9
:10322C000E94F01F0E94BE1E0E946B210E94D91E9C
:10323C000E94781E0E94ED1F64C00E94CE1F31F4C4
:10324C000E94D41F19F4A981A03009F028C0EE8186
:10325C00E03041F4E0912B05E1600E94F31F0E94E5
:10326C00C31E15C0AE81A13041F4E0912B05E26084
:10327C000E94F31F0E94C81E0AC0AE81A23059F4EE
:10328C00E0912B05E4600E94F31F0E94CD1E0E946A
:10329C006B210E94A51E0E947D1E0E94DC1F0E94B5
:1032AC00E31F31F40E94E81F19F4A981A13009F041
:1032BC0028C0EE81E03041F4E0912B05EE7F0E94B6
:1032CC00F31F0E94C31E15C0AE81A13041F4E091E2
:1032DC002B05ED7F0E94F31F0E94C81E0AC0AE8111
:1032EC00A23059F4E0912B05EB7F0E94F31F0E9452
:1032FC00CD1E0E946B210E94D91E0E947D1E0E9431
:10330C00ED1F279608951A9310E01B3108F02DC17C
:10331C00E12FF0E0309749F40E94F61F0E94F91F4C
:10332C000E94FD1F0E9406201EC1E130A0E0FA079A
:10333C0049F40E94F61F0E94F91F0E94FD1F0E9473
:10334C00062011C1E230A0E0FA0749F40E94F61FF2
:10335C000E94F91F0E94FD1F0E94062004C1E33049
:10336C00A0E0FA0749F40E9410200E94F91F0E9465
:10337C00FD1F0E940620F7C0E430A0E0FA0749F4D4
:10338C000E9410200E94F91F0E94FD1F0E9406201F
:10339C00EAC0E530A0E0FA0749F40E9410200E9430
:1033AC00F91F0E94FD1F0E940620DDC0E630A0E040
:1033BC00FA0749F40E9413200E94F91F0E94FD1F76
:1033CC000E940620D0C0E730A0E0FA0749F40E9422
:1033DC0013200E94F91F0E94FD1F0E940620C3C0EB
:1033EC00E830A0E0FA0749F40E9413200E94F91F6C
:1033FC000E94FD1F0E940620B6C0E930A0E0FA072B
:10340C0049F40E94F61F0E94F91F0E94FD1F0E94A2
:10341C001620A9C0EA30A0E0FA0749F40E94F61F72
:10342C000E94F91F0E94FD1F0E9416209CC0EB30C9
:10343C00A0E0FA0749F40E94F61F0E94F91F0E94AF
:10344C00FD1F0E9416208FC0EC30A0E0FA0749F453
:10345C000E9410200E94F91F0E94FD1F0E9416203E
:10346C0082C0ED30A0E0FA0749F40E9410200E94BF
:10347C00F91F0E94FD1F0E94162075C0EE30A0E0BF
:10348C00FA0749F40E9410200E94F91F0E94FD1FA8
:10349C000E94162068C0EF30A0E0FA0749F40E94A1
:1034AC0013200E94F91F0E94FD1F0E9416205BC072
:1034BC00E031A0E0FA0749F40E9413200E94F91FA2
:1034CC000E94FD1F0E9416204EC0E131A0E0FA07B9
:1034DC0049F40E9413200E94F91F0E94FD1F0E94B4
:1034EC00162041C0E231A0E0FA0711F4E0E02BC055
:1034FC00E331A0E0FA0711F4E0E025C0E431A0E0EC
:10350C00FA0711F4E0E01FC0E531A0E0FA0711F46E
:10351C00E1E019C0E631A0E0FA0711F4E1E013C0D4
:10352C00E731A0E0FA0711F4E1E00DC0E831A0E0CA
:10353C00FA0741F0E931A0E0FA0721F0EA31A0E006
:10354C00FA0789F4E2E0EA930E94BF1F0E94F91F78
:10355C000E94FD1FEA93E12FF0E0EF5DF84FE08150
:10356C00EA93A12F6ADE1F5FD0CE19910895E0E097
:10357C00EABBEBBBE7BBE8BBE4BBE5BBE0E1E1BB13
:10358C00E2BBE0E0E2B9E3B9E0936100EFEFE09376
:10359C006200E8E0E0936400E0E0E0936500EFBDDA
:1035AC00E4E0EEBDE3EBEDBDE5EBECBDE0E0E7BD4B
:1035BC00E6BDEBBDEABDE9BDE8BDE0937900E09363
:1035CC007800E4E0E7BFE0E0E0937D00E5B7E06879
:1035DC00E5BFE0E0EBB9E8EDEAB9E6E0E093950091
:1035EC00E0E0E0939000E1E8E9B9E0EEE7B9E7E864
:1035FC00E6B9E0E0E0BD0E94BA20E0E0EA93E1E049
:10360C00EA93A0E00E945A1D789408958E9A969899
:10361C00A4E1B0E00E940B21969A08958E988699A9
:10362C00FECF869BFECF8699FECF08951A930A9300
:10363C0000E010E0183088F4869BFECF88EC8A9569
:10364C00F1F7869B05C0E02FEE0FE1600E2F01C055
:10365C00000F8699FECF1F5FEDCFE02F09911991D6
:10366C000895E8E30E942020ECE00E942020E6E090
:10367C000E9420200895AA931A93EA81F0E03097D3
:10368C0011F410E811C0E130A0E0FA0711F410ECCD
:10369C000BC0E230A0E0FA0711F414E905C0E330E6
:1036AC00A0E0FA0709F414ED0E943720EB81FC81AD
:1036BC00E491E03051F0EB81FC813196EB83FC839B
:1036CC003197E4910E944D20F1CF18816AC0AA93E2
:1036DC001A93EA81F0E0309711F410E811C0E13050
:1036EC00A0E0FA0711F410EC0BC0E230A0E0FA07EE
:1036FC0011F414E905C0E330A0E0FA0709F414ED65
:10370C000E943720AB81BC81EC91E03031F0ED911F
:10371C00AB83BC830E944D20F5CF188142C0BA9375
:10372C00AA93AA810E94EA13A881B9810E94011F61
:10373C00D3C1BA93AA931A930A93AA81BB81129606
:10374C000E946021309729F1AA81BB8114960E94B6
:10375C0060218F01309761F00230E0E01E0780F0AD
:10376C00F80131978F01AA81BB811496ED93FC93DC
:10377C00AA81BB8112960E94011F3197AC81A08354
:10378C00AA81BB810E946021FF2312F00E94011FBD
:10379C0006C0AA81BB81EFEFFFEFED93FC9319817B
:1037AC00088125960895BA93AA9326970E947021B2
:1037BC0010E0AC85BD85E0E0F0E0ED93FC93EA8988
:1037CC00FB893196EA8BFB8B3197E4912E2FE030FD
:1037DC0009F415C1E12FE03039F4253211F411E070
:1037EC0002C00E9461200AC1E130A9F4253219F40B
:1037FC000E94612002C112E040E000E02D3211F481
:10380C0001E0FCC02B3211F44BE2F8C0203211F471
:10381C0040E2F4C002C0E23039F450E013E020334F
:10382C0011F40068EBC003C0E33009F0E7C02033AB
:10383C0010F02A3308F007C0AAE05A9F502DE22F4F
:10384C00E0535E0FDBC0E22FE33649F40E946820A0
:10385C00E889F989A481AA930E946E20CEC0E3372F
:10386C0041F40E9468200E9474200E94A81D1E2F03
:10387C000AC0E03761F40E9468200E9474200E9404
:10388C00B41D1E2F086002600F7730E034C0E436A0
:10389C0011F0E93611F4046002C0E53731F4ECE8BC
:1038AC00FEE1EE83FF8315E00CC0E83511F40860EF
:1038BC0003C0E83709F0A1C0E6E9FEE1EE83FF831F
:1038CC0014E002FF14C00E9468200E947E20AB8589
:1038DC00AA233AF4EA85FB850E941921EA87FB8723
:1038EC004DE2403011F01F5F01C00B7F04C00E94FD
:1038FC0068200E947E2000FD11C0151778F407FF88
:10390C0008C002FF04C00B7F242F115001C020E31C
:10391C0001C020E20E9461205150EFCF312F01FFF6
:10392C0017C03030A1F003FF06C0EE81FF81259156
:10393C00EE83FF8305C0AE81BF812D91AE83BF8323
:10394C000E946120503009F051503150EACF4BC0E9
:10395C0020E3EE81FF810E946421E887F987EE81E4
:10396C00FF813296EE83FF83E885F985AA85BB85B6
:10397C00AE17BF0750F02F5FA885B985EA85FB8588
:10398C00EA1BFB0BEA87FB87EFCF2A3328F003FFF8
:10399C0002C0295F01C0295D04FD1AC0213320F447
:1039AC00A885B985119709F409C0531710F000FFC9
:1039BC0001C013C020E207FF0BC020E3006102FF2F
:1039CC0007C00B7F4A930E946E20503009F0515073
:1039DC000E946120503009F051503150A885B985B2
:1039EC00129708F0B5CF00FF08C0503031F051509D
:1039FC00E0E2EA930E946E20F8CF10E0E0CEAC85B6
:103A0C00BD850E9460210E94772164960895FF92E3
:103A1C00F82E26970E9472210E948620309719F466
:103A2C00EFEFFFEF1DC0DE0116960E9415218D01F0
:103A3C000E948620EE83FF83E0E0E887E987DE01C1
:103A4C001A960E948D20EFE9FBE1FA93EA93DE01CE
:103A5C001A96A9DE9F01AE81BF81E0E0EC93F901DB
:103A6C000E9479212A96FF900895FF92F82E2697AE
:103A7C001A930A93DE0114960E9415218D01E0E041
:103A8C00EC83ED83EE83EF83DE0118960E948D208C
:103A9C00E5E9FBE1FA93EA93DE01189684DE1981DD
:103AAC0008812896FF900895AA93EA81E370EA832F
:103ABC00E981E03019F0EA81E061EA83E881E030E5
:103ACC0019F0EA81E068EA830E949620A7E00E9440
:103ADC00F320AA810E949B2023960895BA93AA935F
:103AEC000E949620A0E00E949B200E949F200E9492
:103AFC00A7200E94AE200E94B420AE2F0E94C11DB0
:103B0C00AC81BD81EC930E94CE2026960895BA9389
:103B1C00AA930E949620A3E00E949B200E949F20C3
:103B2C00AE81BF81EC930E94AE20AC81BD81EC9341
:103B3C000E94AE200E94B4200E94A7200E94CE209A
:103B4C0028960895BA93AA93A991B991EE27FF27C5
:103B5C006D91662311F03196FBCF0895BA93AA9319
:103B6C00AA27BB27E991F9910590002011F0119635
:103B7C00FBCFFD010895AA93E881E295EF70AE2F7B
:103B8C00AA0FAA0FEA0FEE0FA991AF70EA0F0895D2
:103B9C00ECEAFEE1FA93EA93E1E0F0E060E070E039
:103BAC000E946B210895FF27662777270E946B21BF
:103BBC0008958CE00E943B1D2E960895F0E0E130B4
:103BCC00A0E0FA070895E1700E2EE0912C05EE7F2F
:103BDC00E029E0932C050895E881E170EE0F0E2E9C
:103BEC000895E0912C05ED7FE029E0932C050895D4
:103BFC00E1700E2EE0912905EE7FE029E093290576
:103C0C000895E0912905ED7FE029E09329050895B9
:103C1C00E881E170EE0FEE0F0E2E0895E09129056C
:103C2C00EB7FE029E09329050895E1700E2EE091D9
:103C3C002A05EE7FE029E0932A050895E0912A05F4
:103C4C00ED7FE029E0932A050895E0912A05EB7FAA
:103C5C00E029E0932A050895E1700E2EE0912B05E2
:103C6C00EE7FE029E0932B050895E0912B05ED7F85
:103C7C00E029E0932B050895E0912B05EB7FE029DB
:103C8C00E0932B050895E170EE0FEE0FEE0F0E2E64
:103C9C000895E170E295E07F0E2EE0912805EF7E0D
:103CAC000895E170E295E07FEE0F0E2EE09128056D
:103CBC00EF7D0895E170E295E07FEE0FEE0F0E2E92
:103CCC00E0912805EF7B0895E170E795E0E0E7953A
:103CDC000E2EE0912805EF770895E0912905E093E9
:103CEC0001110895E0912A05E09302110895E091E5
:103CFC002B05E09303110895E0912C05E09304113A
:103D0C000895E5E0F0E060E070E00E946B2108951A
:103D1C0084E00E943B1D26969498E7B7EB7FE7BFA3
:103D2C000895E6E0F0E060E070E00E946B210895F9
:103D3C00E4E0F0E060E070E00E946B210895E1E0C7
:103D4C00F0E060E070E00E946B2133CFECEDFEE11F
:103D5C00FA93EA930895E7E0F0E060E070E00895EC
:103D6C000E946B21ECCFE8E0F0E060E070E0089599
:103D7C00E9E0F0E060E070E00895EAE0F0E060E097
:103D8C0070E00895EBE0F0E060E070E00895ECE0A6
:103D9C00F0E060E070E008950E946B2188E00E94E2
:103DAC003B1D2A960895E0E0F0E060E070E00E9490
:103DBC006B21FFCE0E946B21F6CFE053AAE0EA0202
:103DCC00F001AE2F0895E62DE170EE0F0E2E089542
:103DDC00E62DE170EE0FEE0F0E2E0895E0932C05FC
:103DEC008BCFA6E4A083E72DF0E00895E091310598
:103DFC00E0536E2E0895ED91FD913196FE93EE9366
:103E0C0008959F013A932A93A12F0C94D9161E2F33
:103E1C003A932A93A12F0C94D916E55AFF4F0E947E
:103E2C006821109708953A932A93A12F0C94D916D0
:103E3C00E491F0E0E65DF94F0895F901E35AFF4F84
:103E4C000E94642130970895A6E9B0E00E940B21EE
:103E5C00F901E491F0E0ED5BF94FDF01EC9108958D
:103E6C00EF5FEC93F901E491F0E00895F901E4912E
:103E7C00F0E0ED5BF94F0895E0E0E983EFEFE883C4
:103E8C000895A6E9B0E00E940B21F901E491F0E05D
:103E9C00EF59F94FDF01EC910895F901E491F0E04D
:103EAC00EF59F94F08950E946B21F901E4917BCEF3
:103EBC00A6E9B0E00E940B21F901E491F0E0E15891
:103ECC00F94FDF01EC910895F901E491F0E0E1582C
:103EDC00F94F0895A6E9B0E00E940B21F901E49195
:103EEC00F0E0E356F94FDF01EC910895F901E4910C
:103EFC00F0E0E356F94F0895E0932C050895EA930A
:103F0C00A0E00E94411BE981FA810895E3E0F7E00B
:103F1C00FA93EA930895FA93EA93ED81FE81E49182
:103F2C00F0E00895F0E0EF59F94FE081089588E052
:103F3C000E940D1D2C96EACFE1E0EA93A0E00E94CE
:103F4C006D1BE4CFF0E0E356F94FE0810895EA935E
:103F5C00A0E00C946D1BEA93A0E00C94411B0E9412
:103F6C001D210E946B21089580E10E940D1D649615
:103F7C00CDCFE12FF0E0ED5BF94F0895A6E4A083DF
:103F8C00E12FF0E00895EF5DF84FA0E0A0830895D5
:103F9C00AA93ED81A091FD06EA170895EC81A091FA
:103FAC00FE06EA170895E0932905F2CDE881F0E0CA
:103FBC00EF5DF84FA1E0A0830895EB81A091FD0681
:103FCC00EA170895EA81A091FE06EA170895E881A0
:103FDC00F0E0D9CFE0932A05DBCDE0932B05D8CDCB
:103FEC00E0E0EA93C6CFE081EA93E12F9BCFEA931E
:103FFC00E12FF0E0E158F94FE081EA93E12FA2CFF5
:10400C00EA93E12FF0E0EF5DF84FE081EA93A12F06
:10401C000C944D18E1E0EA93ACCFE2E0EA93A9CF1F
:10402C00EA93E12FF0E0EF5DF84FE081EA93A12FE6
:10403C000C94BE18E0930A11E0916500E860E093DF
:10404C00650087E08A95F1F7E0916500E77FE093E2
:10405C00650087E08A95F1F788EE93E00197F1F718
:10406C000895E981E10FE0930A11E0916500E860A1
:10407C00E093650087E08A95F1F7E0916500E77FB2
:10408C00E093650084EF91E00197F1F70895E093D8
:10409C000911E0916500E860E093650087E08A957E
:1040AC00F1F7E0916500E77FE093650084EF91E024
:1040BC000197F1F708952A93AD85BE85EF85F889B0
:1040CC0009950895E889F9893497E88BF98B089557
:1040DC00AD85BE85EF85F88909950895A889B989BC
:1040EC0014960E946021EE83FF83AE81BF810895F8
:1040FC00A889B98914960E946021EA87FB870895E4
:10410C00DE011C960E9415210E94602108950E94D8
:10411C0015210E946021FA93EA931A930A93089549
:10412C000E94BF20A0ED0C94F3200E94F3200C946D
:10413C00CE200E94BF20A1ED0E94F320A1E00C94A0
:10414C00D820AE2F0E94C11DA881B981EC9308958F
:10415C00A1E00E94D820AE2F0C94C11DAA81BB8176
:10416C00EC93A0E00C94D82090989198889A899818
:10417C0015C089988898EE270000819B0895809B34
:10418C00089504D0899A02D0889AE1E061E207C0D0
:10419C00899A889A03D08898F9DF899863E46A959C
:1041AC00F1F7089578E08898F1DF809BFECFEEDF81
:1041BC00889481990894889AF1DFEE1F7A9599F783
:1041CC007A2F772311F4899801C0899ADFDF8898B8
:1041DC00E5DF889ADBDF8998D9CF78E0AA0F10F455
:1041EC00899801C0899ADADF8898D0DF809BFECF4E
:1041FC00CDDF889A7A9591F78998C8DF8898CEDFB9
:10420C00E1E08199EE27889AC1CF109639F088E8C1
:10421C0093E10197F1F7A8951197C9F70895002438
:10422C00AF0DB01D0895F195E195F04008956F2FF5
:10423C00660F660B762F0895EA17E1E009F0EE277A
:10424C000895AE17E1E008F4EE2708950024112438
:10425C0090E1AA0FBB1F001C111C0E1A1F0A18F4A8
:10426C000E0E1F1E01C0A1609A9599F7FD01D00199
:10427C00089512D0EBDF0EF4D6DF0895E894B7FF63
:10428C0004C0A095B09511966894F7FDCCDFDEDFE5
:10429C00FD010EF4C8DF0895E894F7FF02C0C3DFF8
:1042AC006894B7FF06C0A095B095119600F80394DA
:1042BC0000FA0895ED91FC91119708950590F491F1
:1042CC00E02D0895A591B49108957A936A93FA9389
:1042DC00EA9308955A934A933A932A931A930A931A
:1042EC0008955D814C813B812A8119810881089553
:00000001FF
